:020000040000FA
:100000000128831600308600033085000030870009
:1000100006309F00831286018701A0011930A100DC
:10002000A20100301328A401051817281A288518E2
:1000300013281D28051C1A282028851C1D2828285F
:100040002108200603192D28A00F2008A300382816
:1000500021082006031D2F2834282108B128220852
:10006000A006031D34281328A00B2008A30038285D
:100070000A302302031C4228A300A40F0A302402E2
:10008000031C38282308A5004528003024063F30EB
:100090000319A9280130240606300319A9280230C3
:1000A00024065B300319A928033024064F300319B6
:1000B000A9280430240666300319A928053024062F
:1000C0006D300319A928063024067D300319A928AC
:1000D0000730240607300319A928083024067F308A
:1000E0000319A928093024066F300319A928003004
:1000F00025063F300319AB280130250606300319C9
:10010000AB28023025065B300319AB2803302506E7
:100110004F300319AB280430250666300319AB288D
:10012000053025066D300319AB28063025067D30D5
:100130000319AB280730250607300319AB28083010
:1001400025067F300319AB28093025066F300319C7
:10015000AB28860077288700200821060319B128DC
:0E016000B428083085001328203085001328AD
:02016E0000345B
:02017000003459
:00000001FF
